{
  "contractName": "Voting",
  "abi": [
    {
      "constant": true,
      "inputs": [
        {
          "name": "",
          "type": "uint256"
        }
      ],
      "name": "proposals",
      "outputs": [
        {
          "name": "title",
          "type": "string"
        },
        {
          "name": "voteCountPos",
          "type": "uint256"
        },
        {
          "name": "voteCountNeg",
          "type": "uint256"
        },
        {
          "name": "voteCountAbs",
          "type": "uint256"
        }
      ],
      "payable": false,
      "stateMutability": "view",
      "type": "function"
    },
    {
      "anonymous": false,
      "inputs": [],
      "name": "CreatedProposalEvent",
      "type": "event"
    },
    {
      "anonymous": false,
      "inputs": [],
      "name": "CreatedVoteEvent",
      "type": "event"
    },
    {
      "constant": true,
      "inputs": [],
      "name": "getNumProposals",
      "outputs": [
        {
          "name": "",
          "type": "uint256"
        }
      ],
      "payable": false,
      "stateMutability": "view",
      "type": "function"
    },
    {
      "constant": true,
      "inputs": [
        {
          "name": "proposalInt",
          "type": "uint256"
        }
      ],
      "name": "getProposal",
      "outputs": [
        {
          "name": "",
          "type": "uint256"
        },
        {
          "name": "",
          "type": "string"
        },
        {
          "name": "",
          "type": "uint256"
        },
        {
          "name": "",
          "type": "uint256"
        },
        {
          "name": "",
          "type": "uint256"
        },
        {
          "name": "",
          "type": "address[]"
        }
      ],
      "payable": false,
      "stateMutability": "view",
      "type": "function"
    },
    {
      "constant": false,
      "inputs": [
        {
          "name": "title",
          "type": "string"
        }
      ],
      "name": "addProposal",
      "outputs": [
        {
          "name": "",
          "type": "bool"
        }
      ],
      "payable": false,
      "stateMutability": "nonpayable",
      "type": "function"
    },
    {
      "constant": false,
      "inputs": [
        {
          "name": "proposalInt",
          "type": "uint256"
        },
        {
          "name": "voteValue",
          "type": "uint256"
        }
      ],
      "name": "vote",
      "outputs": [
        {
          "name": "",
          "type": "bool"
        }
      ],
      "payable": false,
      "stateMutability": "nonpayable",
      "type": "function"
    }
  ],
  "bytecode": "0x608060405234801561001057600080fd5b50610aad806100206000396000f30060806040526004361061006d576000357c0100000000000000000000000000000000000000000000000000000000900463ffffffff168063013cf08b146100725780632fdae3c51461012d578063798974dd146101ae578063b384abef146101d9578063c7f758a814610228575b600080fd5b34801561007e57600080fd5b5061009d60048036038101908080359060200190929190505050610332565b6040518080602001858152602001848152602001838152602001828103825286818151815260200191508051906020019080838360005b838110156100ef5780820151818401526020810190506100d4565b50505050905090810190601f16801561011c5780820380516001836020036101000a031916815260200191505b509550505050505060405180910390f35b34801561013957600080fd5b50610194600480360381019080803590602001908201803590602001908080601f0160208091040260200160405190810160405280939291908181526020018383808284378201915050505050509192919290505050610409565b604051808215151515815260200191505060405180910390f35b3480156101ba57600080fd5b506101c36104db565b6040518082815260200191505060405180910390f35b3480156101e557600080fd5b5061020e60048036038101908080359060200190929190803590602001909291905050506104e7565b604051808215151515815260200191505060405180910390f35b34801561023457600080fd5b506102536004803603810190808035906020019092919050505061074e565b604051808781526020018060200186815260200185815260200184815260200180602001838103835288818151815260200191508051906020019080838360005b838110156102af578082015181840152602081019050610294565b50505050905090810190601f1680156102dc5780820380516001836020036101000a031916815260200191505b50838103825284818151815260200191508051906020019060200280838360005b838110156103185780820151818401526020810190506102fd565b505050509050019850505050505050505060405180910390f35b60008181548110151561034157fe5b9060005260206000209060060201600091509050806000018054600181600116156101000203166002900480601f0160208091040260200160405190810160405280929190818152602001828054600181600116156101000203166002900480156103ed5780601f106103c2576101008083540402835291602001916103ed565b820191906000526020600020905b8154815290600101906020018083116103d057829003601f168201915b5050505050908060010154908060020154908060030154905084565b60006104136108df565b7f0616bfbef63fbb3fb188ace13631901ead91828d4bc417e8d62b118462b60ff960405160405180910390a182816000018190525060008190806001815401808255809150509060018203906000526020600020906006020160009091929091909150600082015181600001908051906020019061049292919061090f565b5060208201518160010155604082015181600201556060820151816003015560808201518160050190805190602001906104cd92919061098f565b505050506001915050919050565b60008080549050905090565b600080600015156000858154811015156104fd57fe5b906000526020600020906006020160040160003373ffffffffffffffffffffffffffffffffffffffff1673ffffffffffffffffffffffffffffffffffffffff16815260200190815260200160002060010160009054906101000a900460ff16151514156107425760018314806105735750600283145b8061057e5750600383145b151561058957600080fd5b60008481548110151561059857fe5b9060005260206000209060060201905060018314156105c957600181600101600082825401925050819055506105ff565b60028314156105ea57600181600201600082825401925050819055506105fe565b600181600301600082825401925050819055505b5b828160040160003373ffffffffffffffffffffffffffffffffffffffff1673ffffffffffffffffffffffffffffffffffffffff1681526020019081526020016000206000018190555060018160040160003373ffffffffffffffffffffffffffffffffffffffff1673ffffffffffffffffffffffffffffffffffffffff16815260200190815260200160002060010160006101000a81548160ff021916908315150217905550806005013390806001815401808255809150509060018203906000526020600020016000909192909190916101000a81548173ffffffffffffffffffffffffffffffffffffffff021916908373ffffffffffffffffffffffffffffffffffffffff160217905550507fc8d0f117c265f186f11ddd2b492c5183055634fe9b702704eb82c0fe0466364460405160405180910390a160019150610747565b600091505b5092915050565b600060606000806000606060008060008054905011156108d45760008881548110151561077757fe5b90600052602060002090600602019050878160000182600101548360020154846003015485600501848054600181600116156101000203166002900480601f0160208091040260200160405190810160405280929190818152602001828054600181600116156101000203166002900480156108345780601f1061080957610100808354040283529160200191610834565b820191906000526020600020905b81548152906001019060200180831161081757829003601f168201915b50505050509450808054806020026020016040519081016040528092919081815260200182805480156108bc57602002820191906000526020600020905b8160009054906101000a900473ffffffffffffffffffffffffffffffffffffffff1673ffffffffffffffffffffffffffffffffffffffff1681526020019060010190808311610872575b505050505090509650965096509650965096506108d5565b5b5091939550919395565b60a06040519081016040528060608152602001600081526020016000815260200160008152602001606081525090565b828054600181600116156101000203166002900490600052602060002090601f016020900481019282601f1061095057805160ff191683800117855561097e565b8280016001018555821561097e579182015b8281111561097d578251825591602001919060010190610962565b5b50905061098b9190610a19565b5090565b828054828255906000526020600020908101928215610a08579160200282015b82811115610a075782518260006101000a81548173ffffffffffffffffffffffffffffffffffffffff021916908373ffffffffffffffffffffffffffffffffffffffff160217905550916020019190600101906109af565b5b509050610a159190610a3e565b5090565b610a3b91905b80821115610a37576000816000905550600101610a1f565b5090565b90565b610a7e91905b80821115610a7a57600081816101000a81549073ffffffffffffffffffffffffffffffffffffffff021916905550600101610a44565b5090565b905600a165627a7a72305820adf17e599461961462352bda024b59bc71ea166e35cda29ef825194c37639ed70029",
  "source": "pragma solidity ^0.4.17;\n\n\ncontract Voting {\n\n    struct Proposal {\n        string title;\n        uint voteCountPos;\n        uint voteCountNeg;\n        uint voteCountAbs;\n        mapping (address => Voter) voters;\n        address[] votersAddress;\n    }\n\n    struct Voter {\n        uint value;\n        bool voted;\n    }\n\n    Proposal[] public proposals;\n\n    event CreatedProposalEvent();\n    event CreatedVoteEvent();\n\n    function getNumProposals() public view returns (uint) {\n        return proposals.length;\n    }\n\n    function getProposal(uint proposalInt) public view returns (uint, string, uint, uint, uint, address[]) {\n        if (proposals.length > 0) {\n            Proposal storage p = proposals[proposalInt]; // Get the proposal\n            return (proposalInt, p.title, p.voteCountPos, p.voteCountNeg, p.voteCountAbs, p.votersAddress);\n        }\n    }\n\n    function addProposal(string title) public returns (bool) {\n        Proposal memory proposal;\n        CreatedProposalEvent();\n        proposal.title = title;\n        proposals.push(proposal);\n        return true;\n    }\n\n    function vote(uint proposalInt, uint voteValue) public returns (bool) {\n        if (proposals[proposalInt].voters[msg.sender].voted == false) { // check duplicate key\n            require(voteValue == 1 || voteValue == 2 || voteValue == 3); // check voteValue\n            Proposal storage p = proposals[proposalInt]; // Get the proposal\n            if (voteValue == 1) {\n                p.voteCountPos += 1;\n            } else if (voteValue == 2) {\n                p.voteCountNeg += 1;\n            } else {\n                p.voteCountAbs += 1;\n            }\n            p.voters[msg.sender].value = voteValue;\n            p.voters[msg.sender].voted = true;\n            p.votersAddress.push(msg.sender);\n            CreatedVoteEvent();\n            return true;\n        } else {\n            return false;\n        }\n    }\n\n}\n",
  "sourcePath": "/Users/Gustavo/Desktop/plebvoting/contracts/Voting.sol",
  "compiler": {
    "name": "solc",
    "version": "0.4.24+commit.e67f0147.Emscripten.clang"
  },
  "schemaVersion": "2.0.1",
  "updatedAt": "2018-09-04T01:36:55.580Z"
}