{
  "contractName": "Voting",
  "abi": [
    {
      "constant": true,
      "inputs": [
        {
          "name": "",
          "type": "uint256"
        }
      ],
      "name": "plebiscites",
      "outputs": [
        {
          "name": "id",
          "type": "uint256"
        },
        {
          "name": "name",
          "type": "string"
        },
        {
          "name": "votes",
          "type": "uint256"
        }
      ],
      "payable": false,
      "stateMutability": "view",
      "type": "function"
    },
    {
      "constant": true,
      "inputs": [],
      "name": "plebiscitesCount",
      "outputs": [
        {
          "name": "",
          "type": "uint256"
        }
      ],
      "payable": false,
      "stateMutability": "view",
      "type": "function"
    },
    {
      "inputs": [],
      "payable": false,
      "stateMutability": "nonpayable",
      "type": "constructor"
    }
  ],
  "bytecode": "0x608060405234801561001057600080fd5b50610085606060405190810160405280602f81526020017f4120706f7373652064652061726d6173206465766520736572206c696265726181526020017f64612061206164766f6761646f733f00000000000000000000000000000000008152506100fe640100000000026401000000009004565b6100f9606060405190810160405280602b81526020017f4120766163696e612061206d656e6f726573206465203220616e6f732065206f81526020017f6272696761746f7269613f0000000000000000000000000000000000000000008152506100fe640100000000026401000000009004565b61021f565b60016000815480929190600101919050555060606040519081016040528060015481526020018281526020016000815250600080600154815260200190815260200160002060008201518160000155602082015181600101908051906020019061016992919061017a565b506040820151816002015590505050565b828054600181600116156101000203166002900490600052602060002090601f016020900481019282601f106101bb57805160ff19168380011785556101e9565b828001600101855582156101e9579182015b828111156101e85782518255916020019190600101906101cd565b5b5090506101f691906101fa565b5090565b61021c91905b80821115610218576000816000905550600101610200565b5090565b90565b6102248061022e6000396000f30060806040526004361061004c576000357c0100000000000000000000000000000000000000000000000000000000900463ffffffff1680630277e78014610051578063d4028cc414610105575b600080fd5b34801561005d57600080fd5b5061007c60048036038101908080359060200190929190505050610130565b6040518084815260200180602001838152602001828103825284818151815260200191508051906020019080838360005b838110156100c85780820151818401526020810190506100ad565b50505050905090810190601f1680156100f55780820380516001836020036101000a031916815260200191505b5094505050505060405180910390f35b34801561011157600080fd5b5061011a6101f2565b6040518082815260200191505060405180910390f35b6000602052806000526040600020600091509050806000015490806001018054600181600116156101000203166002900480601f0160208091040260200160405190810160405280929190818152602001828054600181600116156101000203166002900480156101e25780601f106101b7576101008083540402835291602001916101e2565b820191906000526020600020905b8154815290600101906020018083116101c557829003601f168201915b5050505050908060020154905083565b600154815600a165627a7a72305820fe97edda5ccd3c70955ccb563385386f117fa7bcc3a82ce09a056d2fac19ebc40029",
  "source": "pragma solidity ^0.4.24;\n\ncontract Voting {\n    // Model a plebiscite\n    struct Plebiscite {\n        uint id;\n        string name;\n        uint votes;\n    }\n\n    // Store plebiscites\n\n    // Fetch plebiscite\n    mapping(uint => Plebiscite) public plebiscites;\n\n    // Store plebiscites count \n    uint public plebiscitesCount;\n\n    // Constructor - Smart Contracts \n    function Voting () public {\n        addPlebiscite(\"A posse de armas deve ser liberada a advogados?\");\n        addPlebiscite(\"A vacina a menores de 2 anos e obrigatoria?\");\n    }\n\n    function addPlebiscite (string _name ) private {\n        plebiscitesCount ++;\n        plebiscites[plebiscitesCount] = Plebiscite(plebiscitesCount, _name, 0); \n    }\n}\n",
  "sourcePath": "/Users/Gustavo/Desktop/plebvoting/contracts/Voting.sol",
  "compiler": {
    "name": "solc",
    "version": "0.4.24+commit.e67f0147.Emscripten.clang"
  },
  "schemaVersion": "2.0.1",
  "updatedAt": "2018-07-18T14:05:01.019Z"
}