{
  "contractName": "Voting",
  "abi": [
    {
      "constant": true,
      "inputs": [
        {
          "name": "",
          "type": "uint256"
        }
      ],
      "name": "plebiscites",
      "outputs": [
        {
          "name": "id",
          "type": "uint256"
        },
        {
          "name": "name",
          "type": "string"
        },
        {
          "name": "votesYes",
          "type": "uint256"
        },
        {
          "name": "votesNo",
          "type": "uint256"
        }
      ],
      "payable": false,
      "stateMutability": "view",
      "type": "function"
    },
    {
      "constant": true,
      "inputs": [
        {
          "name": "",
          "type": "address"
        }
      ],
      "name": "voters",
      "outputs": [
        {
          "name": "",
          "type": "bool"
        }
      ],
      "payable": false,
      "stateMutability": "view",
      "type": "function"
    },
    {
      "constant": true,
      "inputs": [],
      "name": "plebiscitesCount",
      "outputs": [
        {
          "name": "",
          "type": "uint256"
        }
      ],
      "payable": false,
      "stateMutability": "view",
      "type": "function"
    },
    {
      "inputs": [],
      "payable": false,
      "stateMutability": "nonpayable",
      "type": "constructor"
    },
    {
      "constant": false,
      "inputs": [
        {
          "name": "_plebisciteId",
          "type": "uint256"
        }
      ],
      "name": "vote",
      "outputs": [],
      "payable": false,
      "stateMutability": "nonpayable",
      "type": "function"
    }
  ],
  "bytecode": "0x608060405234801561001057600080fd5b50610085606060405190810160405280602f81526020017f4120706f7373652064652061726d6173206465766520736572206c696265726181526020017f64612061206164766f6761646f733f00000000000000000000000000000000008152506100fe640100000000026401000000009004565b6100f9606060405190810160405280602b81526020017f4120766163696e612061206d656e6f726573206465203220616e6f732065206f81526020017f6272696761746f7269613f0000000000000000000000000000000000000000008152506100fe640100000000026401000000009004565b610231565b600260008154809291906001019190505550608060405190810160405280600254815260200182815260200160008152602001600081525060016000600254815260200190815260200160002060008201518160000155602082015181600101908051906020019061017192919061018c565b50604082015181600201556060820151816003015590505050565b828054600181600116156101000203166002900490600052602060002090601f016020900481019282601f106101cd57805160ff19168380011785556101fb565b828001600101855582156101fb579182015b828111156101fa5782518255916020019190600101906101df565b5b509050610208919061020c565b5090565b61022e91905b8082111561022a576000816000905550600101610212565b5090565b90565b6103e4806102406000396000f300608060405260043610610062576000357c0100000000000000000000000000000000000000000000000000000000900463ffffffff1680630121b93f146100675780630277e78014610094578063a3ec138d1461014f578063d4028cc4146101aa575b600080fd5b34801561007357600080fd5b50610092600480360381019080803590602001909291905050506101d5565b005b3480156100a057600080fd5b506100bf600480360381019080803590602001909291905050506102ca565b6040518085815260200180602001848152602001838152602001828103825285818151815260200191508051906020019080838360005b838110156101115780820151818401526020810190506100f6565b50505050905090810190601f16801561013e5780820380516001836020036101000a031916815260200191505b509550505050505060405180910390f35b34801561015b57600080fd5b50610190600480360381019080803573ffffffffffffffffffffffffffffffffffffffff169060200190929190505050610392565b604051808215151515815260200191505060405180910390f35b3480156101b657600080fd5b506101bf6103b2565b6040518082815260200191505060405180910390f35b6000803373ffffffffffffffffffffffffffffffffffffffff1673ffffffffffffffffffffffffffffffffffffffff16815260200190815260200160002060009054906101000a900460ff1615151561022d57600080fd5b60008111801561023f57506002548111155b151561024a57600080fd5b60016000803373ffffffffffffffffffffffffffffffffffffffff1673ffffffffffffffffffffffffffffffffffffffff16815260200190815260200160002060006101000a81548160ff021916908315150217905550600160008281526020019081526020016000206002016000815480929190600101919050555050565b6001602052806000526040600020600091509050806000015490806001018054600181600116156101000203166002900480601f01602080910402602001604051908101604052809291908181526020018280546001816001161561010002031660029004801561037c5780601f106103515761010080835404028352916020019161037c565b820191906000526020600020905b81548152906001019060200180831161035f57829003601f168201915b5050505050908060020154908060030154905084565b60006020528060005260406000206000915054906101000a900460ff1681565b600254815600a165627a7a723058209779c127d0d7ecd02a5dea03c685c199ed049e8a2714850f6cbbb35ab3781ad20029",
  "source": "pragma solidity ^0.4.24;\n\ncontract Voting {\n    // Model a plebiscite\n    struct Plebiscite {\n        uint id;\n        string name;\n        uint votesYes;\n        uint votesNo;\n    }\n\n    // Store plebiscites\n\n    // Store accounts that have voted\n    mapping(address => bool) public voters;\n\n    // Fetch plebiscite\n    mapping(uint => Plebiscite) public plebiscites;\n\n    // Store plebiscites count \n    uint public plebiscitesCount;\n\n    // Constructor - Smart Contracts \n    function Voting () public {\n        addPlebiscite(\"A posse de armas deve ser liberada a advogados?\");\n        addPlebiscite(\"A vacina a menores de 2 anos e obrigatoria?\");\n    }\n\n    function addPlebiscite (string _name ) private {\n        plebiscitesCount ++;\n        plebiscites[plebiscitesCount] = Plebiscite(plebiscitesCount, _name, 0, 0); \n    }\n\n    function vote (uint _plebisciteId) public {\n        // Require tha a voter haven't voted yet\n        require(!voters[msg.sender]);\n\n        // Require a valid plebiscite\n        require(_plebisciteId > 0 && _plebisciteId <= plebiscitesCount);\n\n        // Record that voter has voted\n        voters[msg.sender] = true; \n\n        // Update plebiscite votes count\n        plebiscites[_plebisciteId].votesYes ++;\n    }\n}\n",
  "sourcePath": "/Users/Gustavo/Desktop/plebvoting/contracts/Voting.sol",
  "compiler": {
    "name": "solc",
    "version": "0.4.24+commit.e67f0147.Emscripten.clang"
  },
  "schemaVersion": "2.0.1",
  "updatedAt": "2018-07-18T15:17:33.992Z"
}